{
  "contractName": "escrow",
  "abi": [
    {
      "inputs": [
        {
          "internalType": "address payable",
          "name": "_buyer",
          "type": "address"
        },
        {
          "internalType": "address payable",
          "name": "_seller",
          "type": "address"
        },
        {
          "internalType": "uint256",
          "name": "_amount",
          "type": "uint256"
        },
        {
          "internalType": "address",
          "name": "_tokenContractAddress",
          "type": "address"
        },
        {
          "internalType": "address",
          "name": "_owner",
          "type": "address"
        }
      ],
      "stateMutability": "nonpayable",
      "type": "constructor"
    },
    {
      "inputs": [],
      "name": "Owner",
      "outputs": [
        {
          "internalType": "address",
          "name": "",
          "type": "address"
        }
      ],
      "stateMutability": "view",
      "type": "function"
    },
    {
      "inputs": [],
      "name": "arbiter",
      "outputs": [
        {
          "internalType": "address payable",
          "name": "",
          "type": "address"
        }
      ],
      "stateMutability": "view",
      "type": "function"
    },
    {
      "inputs": [],
      "name": "buyer",
      "outputs": [
        {
          "internalType": "address payable",
          "name": "",
          "type": "address"
        }
      ],
      "stateMutability": "view",
      "type": "function"
    },
    {
      "inputs": [],
      "name": "contractAddress",
      "outputs": [
        {
          "internalType": "address payable",
          "name": "",
          "type": "address"
        }
      ],
      "stateMutability": "view",
      "type": "function"
    },
    {
      "inputs": [],
      "name": "contractAmount",
      "outputs": [
        {
          "internalType": "uint256",
          "name": "",
          "type": "uint256"
        }
      ],
      "stateMutability": "view",
      "type": "function"
    },
    {
      "inputs": [],
      "name": "seller",
      "outputs": [
        {
          "internalType": "address payable",
          "name": "",
          "type": "address"
        }
      ],
      "stateMutability": "view",
      "type": "function"
    },
    {
      "inputs": [],
      "name": "state",
      "outputs": [
        {
          "internalType": "enum escrow.State",
          "name": "",
          "type": "uint8"
        }
      ],
      "stateMutability": "view",
      "type": "function"
    },
    {
      "inputs": [],
      "name": "tokenContractAddress",
      "outputs": [
        {
          "internalType": "address",
          "name": "",
          "type": "address"
        }
      ],
      "stateMutability": "view",
      "type": "function"
    },
    {
      "inputs": [],
      "name": "confirm_payment",
      "outputs": [],
      "stateMutability": "nonpayable",
      "type": "function"
    },
    {
      "inputs": [],
      "name": "confirm_shipped",
      "outputs": [],
      "stateMutability": "nonpayable",
      "type": "function"
    },
    {
      "inputs": [],
      "name": "confirm_Delivery",
      "outputs": [],
      "stateMutability": "nonpayable",
      "type": "function"
    },
    {
      "inputs": [],
      "name": "ReturnPayment",
      "outputs": [],
      "stateMutability": "nonpayable",
      "type": "function"
    }
  ],
  "bytecode": "0x608060405230600360006101000a81548173ffffffffffffffffffffffffffffffffffffffff021916908373ffffffffffffffffffffffffffffffffffffffff1602179055503480156200005257600080fd5b506040516200140438038062001404833981810160405281019062000078919062000327565b33600260006101000a81548173ffffffffffffffffffffffffffffffffffffffff021916908373ffffffffffffffffffffffffffffffffffffffff160217905550846000806101000a81548173ffffffffffffffffffffffffffffffffffffffff021916908373ffffffffffffffffffffffffffffffffffffffff16021790555083600160006101000a81548173ffffffffffffffffffffffffffffffffffffffff021916908373ffffffffffffffffffffffffffffffffffffffff160217905550826006819055506000600760146101000a81548160ff021916908360048111156200016a5762000169620003af565b5b021790555081600560006101000a81548173ffffffffffffffffffffffffffffffffffffffff021916908373ffffffffffffffffffffffffffffffffffffffff16021790555081600460006101000a81548173ffffffffffffffffffffffffffffffffffffffff021916908373ffffffffffffffffffffffffffffffffffffffff16021790555080600760006101000a81548173ffffffffffffffffffffffffffffffffffffffff021916908373ffffffffffffffffffffffffffffffffffffffff1602179055505050505050620003de565b600080fd5b600073ffffffffffffffffffffffffffffffffffffffff82169050919050565b60006200026f8262000242565b9050919050565b620002818162000262565b81146200028d57600080fd5b50565b600081519050620002a18162000276565b92915050565b6000819050919050565b620002bc81620002a7565b8114620002c857600080fd5b50565b600081519050620002dc81620002b1565b92915050565b6000620002ef8262000242565b9050919050565b6200030181620002e2565b81146200030d57600080fd5b50565b6000815190506200032181620002f6565b92915050565b600080600080600060a086880312156200034657620003456200023d565b5b6000620003568882890162000290565b9550506020620003698882890162000290565b94505060406200037c88828901620002cb565b93505060606200038f8882890162000310565b9250506080620003a28882890162000310565b9150509295509295909350565b7f4e487b7100000000000000000000000000000000000000000000000000000000600052602160045260246000fd5b61101680620003ee6000396000f3fe608060405234801561001057600080fd5b50600436106100b45760003560e01c806382edaf941161007157806382edaf9414610131578063b4a99a4e1461014f578063c19d93fb1461016d578063de1905821461018b578063f6b4dfb414610195578063fe25e00a146101b3576100b4565b806308551a53146100b95780630e7be674146100d7578063238e9d93146100e157806355f0cc45146100eb578063565a57ca146100f55780637150d8ae14610113575b600080fd5b6100c16101d1565b6040516100ce9190610ad9565b60405180910390f35b6100df6101f7565b005b6100e961040a565b005b6100f3610602565b005b6100fd61088e565b60405161010a9190610b0d565b60405180910390f35b61011b610894565b6040516101289190610ad9565b60405180910390f35b6101396108b8565b6040516101469190610b49565b60405180910390f35b6101576108de565b6040516101649190610b49565b60405180910390f35b610175610904565b6040516101829190610bdb565b60405180910390f35b610193610917565b005b61019d610a4c565b6040516101aa9190610ad9565b60405180910390f35b6101bb610a72565b6040516101c89190610ad9565b60405180910390f35b600160009054906101000a900473ffffffffffffffffffffffffffffffffffffffff1681565b60008054906101000a900473ffffffffffffffffffffffffffffffffffffffff1673ffffffffffffffffffffffffffffffffffffffff163373ffffffffffffffffffffffffffffffffffffffff1614610285576040517f08c379a000000000000000000000000000000000000000000000000000000000815260040161027c90610c79565b60405180910390fd5b600080600481111561029a57610299610b64565b5b600760149054906101000a900460ff1660048111156102bc576102bb610b64565b5b146102fc576040517f08c379a00000000000000000000000000000000000000000000000000000000081526004016102f390610ce5565b60405180910390fd5b600654600460009054906101000a900473ffffffffffffffffffffffffffffffffffffffff1673ffffffffffffffffffffffffffffffffffffffff166370a08231306040518263ffffffff1660e01b815260040161035a9190610b49565b602060405180830381865afa158015610377573d6000803e3d6000fd5b505050506040513d601f19601f8201168201806040525081019061039b9190610d36565b10156103dc576040517f08c379a00000000000000000000000000000000000000000000000000000000081526004016103d390610daf565b60405180910390fd5b6001600760146101000a81548160ff0219169083600481111561040257610401610b64565b5b021790555050565b60008054906101000a900473ffffffffffffffffffffffffffffffffffffffff1673ffffffffffffffffffffffffffffffffffffffff163373ffffffffffffffffffffffffffffffffffffffff1614610498576040517f08c379a000000000000000000000000000000000000000000000000000000000815260040161048f90610c79565b60405180910390fd5b60028060048111156104ad576104ac610b64565b5b600760149054906101000a900460ff1660048111156104cf576104ce610b64565b5b1461050f576040517f08c379a000000000000000000000000000000000000000000000000000000000815260040161050690610ce5565b60405180910390fd5b600460009054906101000a900473ffffffffffffffffffffffffffffffffffffffff1673ffffffffffffffffffffffffffffffffffffffff1663a9059cbb600160009054906101000a900473ffffffffffffffffffffffffffffffffffffffff166006546040518363ffffffff1660e01b8152600401610590929190610e2e565b6020604051808303816000875af11580156105af573d6000803e3d6000fd5b505050506040513d601f19601f820116820180604052508101906105d39190610e8f565b506003600760146101000a81548160ff021916908360048111156105fa576105f9610b64565b5b021790555050565b600760009054906101000a900473ffffffffffffffffffffffffffffffffffffffff1673ffffffffffffffffffffffffffffffffffffffff163373ffffffffffffffffffffffffffffffffffffffff1614806106ab5750600160009054906101000a900473ffffffffffffffffffffffffffffffffffffffff1673ffffffffffffffffffffffffffffffffffffffff163373ffffffffffffffffffffffffffffffffffffffff16145b6106ea576040517f08c379a00000000000000000000000000000000000000000000000000000000081526004016106e190610f2e565b60405180910390fd5b600260048111156106fe576106fd610b64565b5b600760149054906101000a900460ff1660048111156107205761071f610b64565b5b148061075f57506001600481111561073b5761073a610b64565b5b600760149054906101000a900460ff16600481111561075d5761075c610b64565b5b145b61079e576040517f08c379a000000000000000000000000000000000000000000000000000000000815260040161079590610ce5565b60405180910390fd5b600460009054906101000a900473ffffffffffffffffffffffffffffffffffffffff1673ffffffffffffffffffffffffffffffffffffffff1663a9059cbb60008054906101000a900473ffffffffffffffffffffffffffffffffffffffff166006546040518363ffffffff1660e01b815260040161081d929190610e2e565b6020604051808303816000875af115801561083c573d6000803e3d6000fd5b505050506040513d601f19601f820116820180604052508101906108609190610e8f565b506004600760146101000a81548160ff0219169083600481111561088757610886610b64565b5b0217905550565b60065481565b60008054906101000a900473ffffffffffffffffffffffffffffffffffffffff1681565b600560009054906101000a900473ffffffffffffffffffffffffffffffffffffffff1681565b600760009054906101000a900473ffffffffffffffffffffffffffffffffffffffff1681565b600760149054906101000a900460ff1681565b600160009054906101000a900473ffffffffffffffffffffffffffffffffffffffff1673ffffffffffffffffffffffffffffffffffffffff163373ffffffffffffffffffffffffffffffffffffffff16146109a7576040517f08c379a000000000000000000000000000000000000000000000000000000000815260040161099e90610fc0565b60405180910390fd5b60018060048111156109bc576109bb610b64565b5b600760149054906101000a900460ff1660048111156109de576109dd610b64565b5b14610a1e576040517f08c379a0000000000000000000000000000000000000000000000000000000008152600401610a1590610ce5565b60405180910390fd5b6002600760146101000a81548160ff02191690836004811115610a4457610a43610b64565b5b021790555050565b600360009054906101000a900473ffffffffffffffffffffffffffffffffffffffff1681565b600260009054906101000a900473ffffffffffffffffffffffffffffffffffffffff1681565b600073ffffffffffffffffffffffffffffffffffffffff82169050919050565b6000610ac382610a98565b9050919050565b610ad381610ab8565b82525050565b6000602082019050610aee6000830184610aca565b92915050565b6000819050919050565b610b0781610af4565b82525050565b6000602082019050610b226000830184610afe565b92915050565b6000610b3382610a98565b9050919050565b610b4381610b28565b82525050565b6000602082019050610b5e6000830184610b3a565b92915050565b7f4e487b7100000000000000000000000000000000000000000000000000000000600052602160045260246000fd5b60058110610ba457610ba3610b64565b5b50565b6000819050610bb582610b93565b919050565b6000610bc582610ba7565b9050919050565b610bd581610bba565b82525050565b6000602082019050610bf06000830184610bcc565b92915050565b600082825260208201905092915050565b7f4f6e6c792062757965722063616e2063616c6c20746869732066756e6374696f60008201527f6e00000000000000000000000000000000000000000000000000000000000000602082015250565b6000610c63602183610bf6565b9150610c6e82610c07565b604082019050919050565b60006020820190508181036000830152610c9281610c56565b9050919050565b7f5374617465206973206e6f74204d61746368696e670000000000000000000000600082015250565b6000610ccf601583610bf6565b9150610cda82610c99565b602082019050919050565b60006020820190508181036000830152610cfe81610cc2565b9050919050565b600080fd5b610d1381610af4565b8114610d1e57600080fd5b50565b600081519050610d3081610d0a565b92915050565b600060208284031215610d4c57610d4b610d05565b5b6000610d5a84828501610d21565b91505092915050565b7f50617920746865207061796d656e740000000000000000000000000000000000600082015250565b6000610d99600f83610bf6565b9150610da482610d63565b602082019050919050565b60006020820190508181036000830152610dc881610d8c565b9050919050565b6000819050919050565b6000610df4610def610dea84610a98565b610dcf565b610a98565b9050919050565b6000610e0682610dd9565b9050919050565b6000610e1882610dfb565b9050919050565b610e2881610e0d565b82525050565b6000604082019050610e436000830185610e1f565b610e506020830184610afe565b9392505050565b60008115159050919050565b610e6c81610e57565b8114610e7757600080fd5b50565b600081519050610e8981610e63565b92915050565b600060208284031215610ea557610ea4610d05565b5b6000610eb384828501610e7a565b91505092915050565b7f546869732066756e6374696f6e206973206f6e6c792063616c6c65642062792060008201527f4f776e6572206f722073656c6c65720000000000000000000000000000000000602082015250565b6000610f18602f83610bf6565b9150610f2382610ebc565b604082019050919050565b60006020820190508181036000830152610f4781610f0b565b9050919050565b7f4f6e6c792073656c6c65722063616e2063616c6c20746869732066756e63746960008201527f6f6e000000000000000000000000000000000000000000000000000000000000602082015250565b6000610faa602283610bf6565b9150610fb582610f4e565b604082019050919050565b60006020820190508181036000830152610fd981610f9d565b905091905056fea2646970667358221220da6ec56aeea1f9795ac01d0024704314b900f57fabef5fc0b8202e3622ec86ac64736f6c63430008110033",
  "immutableReferences": {},
  "source": "// SPDX-License-Identifier: MIT\npragma solidity ^0.8.9;\n\nimport \"@openzeppelin/contracts/token/ERC20/ERC20.sol\";\nimport \"@openzeppelin/contracts/token/ERC20/extensions/ERC20Burnable.sol\";\nimport \"@openzeppelin/contracts/access/Ownable.sol\";\n\ncontract EscrowFundManagementToken is ERC20, ERC20Burnable, Ownable {\n\n    constructor() ERC20(\"EscrowFundManagementToken\", \"EFMT\" ) {}\n\n    function deposit(address to, uint256 amount) public payable{\n        require(msg.value==amount, \"Value is less than amount\");\n        _mint(to, amount);\n    }\n\n    function withdrawal(uint256 amt) public payable {\n        _burn(msg.sender,amt);\n        payable(msg.sender).transfer(amt);\n    }\n\n    function contractBalance()public view returns(uint256){\n        return address(this).balance;\n    }\n\n}\n\ncontract EscrowFundManagement {\n    address public Owner;\n    EscrowFundManagementToken tokenContract;\n    address public tokenContractAddress;\n    mapping(address=>address []) public addressesCollection;\n\n    modifier onlyEFMOwner(){\n        require(msg.sender==Owner, \"This function is only be called by Owner\");\n        _;\n    }\n    constructor(){\n        Owner=msg.sender;\n        tokenContract=new EscrowFundManagementToken();\n        tokenContractAddress=address(tokenContract);\n    }\n\n    function getContracts(address from) public view returns(address [] memory ){\n        return addressesCollection[from];\n    }\n    \n    function OwnerTransfer(address to) onlyEFMOwner external {\n        Owner=to;\n    }\n\n    function generateContract(address payable _buyer, address payable _seller, uint256 _amount) public {\n        escrow ecContract= new escrow(_buyer, _seller, _amount,tokenContractAddress,Owner);\n        addressesCollection[_buyer].push(address(ecContract));\n        addressesCollection[_seller].push(address(ecContract));\n    }\n\n    function contractBalance()public view returns(uint256){\n        return address(this).balance;\n    }\n\n}\n\ncontract escrow {\n    // Declaring the state variables\n    \n    address payable public buyer;\n    address payable public seller;\n    address payable public arbiter;\n    address payable public contractAddress=payable(address(this));\n    EscrowFundManagementToken tokenContract;\n    address public tokenContractAddress;\n    uint256 public contractAmount;\n    // mapping(address => uint) TotalAmount;\n    address public Owner;\n  \n    // Defining a enumerator 'State'\n    enum State{\n         \n        // Following are the data members\n        awate_payment, awate_shipping,awate_delivery, complete, payment_return \n    }\n  \n    // Declaring the object of the enumerator\n    State public state;\n      \n    // Defining function modifier 'instate'\n    modifier instate(State expected_state){\n          \n        require(state == expected_state, \"State is not Matching\");\n        _;\n    }\n  \n   // Defining function modifier 'onlyBuyer'\n    modifier onlyBuyer(){\n        require(msg.sender == buyer, \"Only buyer can call this function\");\n        _;\n    }\n  \n    // Defining function modifier 'onlySeller'\n    modifier onlySeller(){\n        require(msg.sender == seller, \"Only seller can call this function\");\n        _;\n    }\n      \n    // Defining a constructor\n    constructor(address payable _buyer, address payable _seller, uint256 _amount, address _tokenContractAddress, address _owner) {\n\n        arbiter = payable(msg.sender);\n        buyer = _buyer;\n        seller = _seller;\n        contractAmount=_amount;\n        state = State.awate_payment;\n        tokenContractAddress=_tokenContractAddress;\n        tokenContract= EscrowFundManagementToken(_tokenContractAddress);\n        Owner=_owner;\n    }\n      \n    // Defining function to confirm payment\n    function confirm_payment() onlyBuyer instate(State.awate_payment) public {\n      require(tokenContract.balanceOf(address(this))>=contractAmount,\"Pay the payment\");\n        // tokenContract.transfer(address(this),contractAmount);\n        state = State.awate_shipping;\n          \n    }\n\n    function confirm_shipped() onlySeller instate(State.awate_shipping) public {\n      \n        state = State.awate_delivery;\n    }\n      \n    // Defining function to confirm delivery\n    function confirm_Delivery() onlyBuyer instate(State.awate_delivery) public{\n          \n        tokenContract.transfer(seller,contractAmount);\n        state = State.complete;\n    }\n  \n    // Defining function to return payment\n    function ReturnPayment() public{\n        require(msg.sender==Owner || msg.sender==seller,\"This function is only called by Owner or seller\");\n        require(state == State.awate_delivery || state == State.awate_shipping, \"State is not Matching\");\n        tokenContract.transfer(buyer,contractAmount);\n        state = State.payment_return;\n    }\n\n}\n",
  "sourcePath": "/home/sumit/Desktop/escrowmanagementsystent/contracts/contract1.sol",
  "compiler": {
    "name": "solc",
    "version": "0.8.17+commit.8df45f5f.Emscripten.clang"
  },
  "schemaVersion": "3.4.11",
  "updatedAt": "2022-12-26T10:12:47.287Z",
  "devdoc": {
    "kind": "dev",
    "methods": {},
    "version": 1
  },
  "userdoc": {
    "kind": "user",
    "methods": {},
    "version": 1
  }
}