{
  "contractName": "EscrowFundManagementToken",
  "abi": [
    {
      "inputs": [],
      "stateMutability": "nonpayable",
      "type": "constructor"
    },
    {
      "anonymous": false,
      "inputs": [
        {
          "indexed": true,
          "internalType": "address",
          "name": "owner",
          "type": "address"
        },
        {
          "indexed": true,
          "internalType": "address",
          "name": "spender",
          "type": "address"
        },
        {
          "indexed": false,
          "internalType": "uint256",
          "name": "value",
          "type": "uint256"
        }
      ],
      "name": "Approval",
      "type": "event"
    },
    {
      "anonymous": false,
      "inputs": [
        {
          "indexed": true,
          "internalType": "address",
          "name": "previousOwner",
          "type": "address"
        },
        {
          "indexed": true,
          "internalType": "address",
          "name": "newOwner",
          "type": "address"
        }
      ],
      "name": "OwnershipTransferred",
      "type": "event"
    },
    {
      "anonymous": false,
      "inputs": [
        {
          "indexed": true,
          "internalType": "address",
          "name": "from",
          "type": "address"
        },
        {
          "indexed": true,
          "internalType": "address",
          "name": "to",
          "type": "address"
        },
        {
          "indexed": false,
          "internalType": "uint256",
          "name": "value",
          "type": "uint256"
        }
      ],
      "name": "Transfer",
      "type": "event"
    },
    {
      "inputs": [
        {
          "internalType": "address",
          "name": "owner",
          "type": "address"
        },
        {
          "internalType": "address",
          "name": "spender",
          "type": "address"
        }
      ],
      "name": "allowance",
      "outputs": [
        {
          "internalType": "uint256",
          "name": "",
          "type": "uint256"
        }
      ],
      "stateMutability": "view",
      "type": "function"
    },
    {
      "inputs": [
        {
          "internalType": "address",
          "name": "spender",
          "type": "address"
        },
        {
          "internalType": "uint256",
          "name": "amount",
          "type": "uint256"
        }
      ],
      "name": "approve",
      "outputs": [
        {
          "internalType": "bool",
          "name": "",
          "type": "bool"
        }
      ],
      "stateMutability": "nonpayable",
      "type": "function"
    },
    {
      "inputs": [
        {
          "internalType": "address",
          "name": "account",
          "type": "address"
        }
      ],
      "name": "balanceOf",
      "outputs": [
        {
          "internalType": "uint256",
          "name": "",
          "type": "uint256"
        }
      ],
      "stateMutability": "view",
      "type": "function"
    },
    {
      "inputs": [
        {
          "internalType": "uint256",
          "name": "amount",
          "type": "uint256"
        }
      ],
      "name": "burn",
      "outputs": [],
      "stateMutability": "nonpayable",
      "type": "function"
    },
    {
      "inputs": [
        {
          "internalType": "address",
          "name": "account",
          "type": "address"
        },
        {
          "internalType": "uint256",
          "name": "amount",
          "type": "uint256"
        }
      ],
      "name": "burnFrom",
      "outputs": [],
      "stateMutability": "nonpayable",
      "type": "function"
    },
    {
      "inputs": [],
      "name": "decimals",
      "outputs": [
        {
          "internalType": "uint8",
          "name": "",
          "type": "uint8"
        }
      ],
      "stateMutability": "view",
      "type": "function"
    },
    {
      "inputs": [
        {
          "internalType": "address",
          "name": "spender",
          "type": "address"
        },
        {
          "internalType": "uint256",
          "name": "subtractedValue",
          "type": "uint256"
        }
      ],
      "name": "decreaseAllowance",
      "outputs": [
        {
          "internalType": "bool",
          "name": "",
          "type": "bool"
        }
      ],
      "stateMutability": "nonpayable",
      "type": "function"
    },
    {
      "inputs": [
        {
          "internalType": "address",
          "name": "spender",
          "type": "address"
        },
        {
          "internalType": "uint256",
          "name": "addedValue",
          "type": "uint256"
        }
      ],
      "name": "increaseAllowance",
      "outputs": [
        {
          "internalType": "bool",
          "name": "",
          "type": "bool"
        }
      ],
      "stateMutability": "nonpayable",
      "type": "function"
    },
    {
      "inputs": [],
      "name": "name",
      "outputs": [
        {
          "internalType": "string",
          "name": "",
          "type": "string"
        }
      ],
      "stateMutability": "view",
      "type": "function"
    },
    {
      "inputs": [],
      "name": "owner",
      "outputs": [
        {
          "internalType": "address",
          "name": "",
          "type": "address"
        }
      ],
      "stateMutability": "view",
      "type": "function"
    },
    {
      "inputs": [],
      "name": "renounceOwnership",
      "outputs": [],
      "stateMutability": "nonpayable",
      "type": "function"
    },
    {
      "inputs": [],
      "name": "symbol",
      "outputs": [
        {
          "internalType": "string",
          "name": "",
          "type": "string"
        }
      ],
      "stateMutability": "view",
      "type": "function"
    },
    {
      "inputs": [],
      "name": "totalSupply",
      "outputs": [
        {
          "internalType": "uint256",
          "name": "",
          "type": "uint256"
        }
      ],
      "stateMutability": "view",
      "type": "function"
    },
    {
      "inputs": [
        {
          "internalType": "address",
          "name": "to",
          "type": "address"
        },
        {
          "internalType": "uint256",
          "name": "amount",
          "type": "uint256"
        }
      ],
      "name": "transfer",
      "outputs": [
        {
          "internalType": "bool",
          "name": "",
          "type": "bool"
        }
      ],
      "stateMutability": "nonpayable",
      "type": "function"
    },
    {
      "inputs": [
        {
          "internalType": "address",
          "name": "from",
          "type": "address"
        },
        {
          "internalType": "address",
          "name": "to",
          "type": "address"
        },
        {
          "internalType": "uint256",
          "name": "amount",
          "type": "uint256"
        }
      ],
      "name": "transferFrom",
      "outputs": [
        {
          "internalType": "bool",
          "name": "",
          "type": "bool"
        }
      ],
      "stateMutability": "nonpayable",
      "type": "function"
    },
    {
      "inputs": [
        {
          "internalType": "address",
          "name": "newOwner",
          "type": "address"
        }
      ],
      "name": "transferOwnership",
      "outputs": [],
      "stateMutability": "nonpayable",
      "type": "function"
    },
    {
      "inputs": [
        {
          "internalType": "address",
          "name": "to",
          "type": "address"
        },
        {
          "internalType": "uint256",
          "name": "amount",
          "type": "uint256"
        }
      ],
      "name": "deposit",
      "outputs": [],
      "stateMutability": "payable",
      "type": "function"
    },
    {
      "inputs": [
        {
          "internalType": "uint256",
          "name": "amt",
          "type": "uint256"
        }
      ],
      "name": "withdrawal",
      "outputs": [],
      "stateMutability": "payable",
      "type": "function"
    },
    {
      "inputs": [],
      "name": "contractBalance",
      "outputs": [
        {
          "internalType": "uint256",
          "name": "",
          "type": "uint256"
        }
      ],
      "stateMutability": "view",
      "type": "function"
    }
  ],
  "bytecode": "0x60806040523480156200001157600080fd5b506040518060400160405280601981526020017f457363726f7746756e644d616e6167656d656e74546f6b656e000000000000008152506040518060400160405280600481526020017f45464d540000000000000000000000000000000000000000000000000000000081525081600390816200008f919062000412565b508060049081620000a1919062000412565b505050620000c4620000b8620000ca60201b60201c565b620000d260201b60201c565b620004f9565b600033905090565b6000600560009054906101000a900473ffffffffffffffffffffffffffffffffffffffff16905081600560006101000a81548173ffffffffffffffffffffffffffffffffffffffff021916908373ffffffffffffffffffffffffffffffffffffffff1602179055508173ffffffffffffffffffffffffffffffffffffffff168173ffffffffffffffffffffffffffffffffffffffff167f8be0079c531659141344cd1fd0a4f28419497f9722a3daafe3b4186f6b6457e060405160405180910390a35050565b600081519050919050565b7f4e487b7100000000000000000000000000000000000000000000000000000000600052604160045260246000fd5b7f4e487b7100000000000000000000000000000000000000000000000000000000600052602260045260246000fd5b600060028204905060018216806200021a57607f821691505b60208210810362000230576200022f620001d2565b5b50919050565b60008190508160005260206000209050919050565b60006020601f8301049050919050565b600082821b905092915050565b6000600883026200029a7fffffffffffffffffffffffffffffffffffffffffffffffffffffffffffffffff826200025b565b620002a686836200025b565b95508019841693508086168417925050509392505050565b6000819050919050565b6000819050919050565b6000620002f3620002ed620002e784620002be565b620002c8565b620002be565b9050919050565b6000819050919050565b6200030f83620002d2565b620003276200031e82620002fa565b84845462000268565b825550505050565b600090565b6200033e6200032f565b6200034b81848462000304565b505050565b5b8181101562000373576200036760008262000334565b60018101905062000351565b5050565b601f821115620003c2576200038c8162000236565b62000397846200024b565b81016020851015620003a7578190505b620003bf620003b6856200024b565b83018262000350565b50505b505050565b600082821c905092915050565b6000620003e760001984600802620003c7565b1980831691505092915050565b6000620004028383620003d4565b9150826002028217905092915050565b6200041d8262000198565b67ffffffffffffffff811115620004395762000438620001a3565b5b62000445825462000201565b6200045282828562000377565b600060209050601f8311600181146200048a576000841562000475578287015190505b620004818582620003f4565b865550620004f1565b601f1984166200049a8662000236565b60005b82811015620004c4578489015182556001820191506020850194506020810190506200049d565b86831015620004e45784890151620004e0601f891682620003d4565b8355505b6001600288020188555050505b505050505050565b611da280620005096000396000f3fe6080604052600436106101145760003560e01c8063715018a6116100a057806395d89b411161006457806395d89b4114610385578063a457c2d7146103b0578063a9059cbb146103ed578063dd62ed3e1461042a578063f2fde38b1461046757610114565b8063715018a6146102d357806379cc6790146102ea578063835fc6ca146103135780638b7afe2e1461032f5780638da5cb5b1461035a57610114565b8063313ce567116100e7578063313ce567146101e9578063395093511461021457806342966c681461025157806347e7ef241461027a57806370a082311461029657610114565b806306fdde0314610119578063095ea7b31461014457806318160ddd1461018157806323b872dd146101ac575b600080fd5b34801561012557600080fd5b5061012e610490565b60405161013b919061132e565b60405180910390f35b34801561015057600080fd5b5061016b600480360381019061016691906113e9565b610522565b6040516101789190611444565b60405180910390f35b34801561018d57600080fd5b50610196610545565b6040516101a3919061146e565b60405180910390f35b3480156101b857600080fd5b506101d360048036038101906101ce9190611489565b61054f565b6040516101e09190611444565b60405180910390f35b3480156101f557600080fd5b506101fe61057e565b60405161020b91906114f8565b60405180910390f35b34801561022057600080fd5b5061023b600480360381019061023691906113e9565b610587565b6040516102489190611444565b60405180910390f35b34801561025d57600080fd5b5061027860048036038101906102739190611513565b6105be565b005b610294600480360381019061028f91906113e9565b6105d2565b005b3480156102a257600080fd5b506102bd60048036038101906102b89190611540565b610622565b6040516102ca919061146e565b60405180910390f35b3480156102df57600080fd5b506102e861066a565b005b3480156102f657600080fd5b50610311600480360381019061030c91906113e9565b61067e565b005b61032d60048036038101906103289190611513565b61069e565b005b34801561033b57600080fd5b506103446106f2565b604051610351919061146e565b60405180910390f35b34801561036657600080fd5b5061036f6106fa565b60405161037c919061157c565b60405180910390f35b34801561039157600080fd5b5061039a610724565b6040516103a7919061132e565b60405180910390f35b3480156103bc57600080fd5b506103d760048036038101906103d291906113e9565b6107b6565b6040516103e49190611444565b60405180910390f35b3480156103f957600080fd5b50610414600480360381019061040f91906113e9565b61082d565b6040516104219190611444565b60405180910390f35b34801561043657600080fd5b50610451600480360381019061044c9190611597565b610850565b60405161045e919061146e565b60405180910390f35b34801561047357600080fd5b5061048e60048036038101906104899190611540565b6108d7565b005b60606003805461049f90611606565b80601f01602080910402602001604051908101604052809291908181526020018280546104cb90611606565b80156105185780601f106104ed57610100808354040283529160200191610518565b820191906000526020600020905b8154815290600101906020018083116104fb57829003601f168201915b5050505050905090565b60008061052d61095a565b905061053a818585610962565b600191505092915050565b6000600254905090565b60008061055a61095a565b9050610567858285610b2b565b610572858585610bb7565b60019150509392505050565b60006012905090565b60008061059261095a565b90506105b38185856105a48589610850565b6105ae9190611666565b610962565b600191505092915050565b6105cf6105c961095a565b82610e2d565b50565b803414610614576040517f08c379a000000000000000000000000000000000000000000000000000000000815260040161060b906116e6565b60405180910390fd5b61061e8282610ffa565b5050565b60008060008373ffffffffffffffffffffffffffffffffffffffff1673ffffffffffffffffffffffffffffffffffffffff168152602001908152602001600020549050919050565b610672611150565b61067c60006111ce565b565b6106908261068a61095a565b83610b2b565b61069a8282610e2d565b5050565b6106a83382610e2d565b3373ffffffffffffffffffffffffffffffffffffffff166108fc829081150290604051600060405180830381858888f193505050501580156106ee573d6000803e3d6000fd5b5050565b600047905090565b6000600560009054906101000a900473ffffffffffffffffffffffffffffffffffffffff16905090565b60606004805461073390611606565b80601f016020809104026020016040519081016040528092919081815260200182805461075f90611606565b80156107ac5780601f10610781576101008083540402835291602001916107ac565b820191906000526020600020905b81548152906001019060200180831161078f57829003601f168201915b5050505050905090565b6000806107c161095a565b905060006107cf8286610850565b905083811015610814576040517f08c379a000000000000000000000000000000000000000000000000000000000815260040161080b90611778565b60405180910390fd5b6108218286868403610962565b60019250505092915050565b60008061083861095a565b9050610845818585610bb7565b600191505092915050565b6000600160008473ffffffffffffffffffffffffffffffffffffffff1673ffffffffffffffffffffffffffffffffffffffff16815260200190815260200160002060008373ffffffffffffffffffffffffffffffffffffffff1673ffffffffffffffffffffffffffffffffffffffff16815260200190815260200160002054905092915050565b6108df611150565b600073ffffffffffffffffffffffffffffffffffffffff168173ffffffffffffffffffffffffffffffffffffffff160361094e576040517f08c379a00000000000000000000000000000000000000000000000000000000081526004016109459061180a565b60405180910390fd5b610957816111ce565b50565b600033905090565b600073ffffffffffffffffffffffffffffffffffffffff168373ffffffffffffffffffffffffffffffffffffffff16036109d1576040517f08c379a00000000000000000000000000000000000000000000000000000000081526004016109c89061189c565b60405180910390fd5b600073ffffffffffffffffffffffffffffffffffffffff168273ffffffffffffffffffffffffffffffffffffffff1603610a40576040517f08c379a0000000000000000000000000000000000000000000000000000000008152600401610a379061192e565b60405180910390fd5b80600160008573ffffffffffffffffffffffffffffffffffffffff1673ffffffffffffffffffffffffffffffffffffffff16815260200190815260200160002060008473ffffffffffffffffffffffffffffffffffffffff1673ffffffffffffffffffffffffffffffffffffffff168152602001908152602001600020819055508173ffffffffffffffffffffffffffffffffffffffff168373ffffffffffffffffffffffffffffffffffffffff167f8c5be1e5ebec7d5bd14f71427d1e84f3dd0314c0f7b2291e5b200ac8c7c3b92583604051610b1e919061146e565b60405180910390a3505050565b6000610b378484610850565b90507fffffffffffffffffffffffffffffffffffffffffffffffffffffffffffffffff8114610bb15781811015610ba3576040517f08c379a0000000000000000000000000000000000000000000000000000000008152600401610b9a9061199a565b60405180910390fd5b610bb08484848403610962565b5b50505050565b600073ffffffffffffffffffffffffffffffffffffffff168373ffffffffffffffffffffffffffffffffffffffff1603610c26576040517f08c379a0000000000000000000000000000000000000000000000000000000008152600401610c1d90611a2c565b60405180910390fd5b600073ffffffffffffffffffffffffffffffffffffffff168273ffffffffffffffffffffffffffffffffffffffff1603610c95576040517f08c379a0000000000000000000000000000000000000000000000000000000008152600401610c8c90611abe565b60405180910390fd5b610ca0838383611294565b60008060008573ffffffffffffffffffffffffffffffffffffffff1673ffffffffffffffffffffffffffffffffffffffff16815260200190815260200160002054905081811015610d26576040517f08c379a0000000000000000000000000000000000000000000000000000000008152600401610d1d90611b50565b60405180910390fd5b8181036000808673ffffffffffffffffffffffffffffffffffffffff1673ffffffffffffffffffffffffffffffffffffffff16815260200190815260200160002081905550816000808573ffffffffffffffffffffffffffffffffffffffff1673ffffffffffffffffffffffffffffffffffffffff168152602001908152602001600020600082825401925050819055508273ffffffffffffffffffffffffffffffffffffffff168473ffffffffffffffffffffffffffffffffffffffff167fddf252ad1be2c89b69c2b068fc378daa952ba7f163c4a11628f55a4df523b3ef84604051610e14919061146e565b60405180910390a3610e27848484611299565b50505050565b600073ffffffffffffffffffffffffffffffffffffffff168273ffffffffffffffffffffffffffffffffffffffff1603610e9c576040517f08c379a0000000000000000000000000000000000000000000000000000000008152600401610e9390611be2565b60405180910390fd5b610ea882600083611294565b60008060008473ffffffffffffffffffffffffffffffffffffffff1673ffffffffffffffffffffffffffffffffffffffff16815260200190815260200160002054905081811015610f2e576040517f08c379a0000000000000000000000000000000000000000000000000000000008152600401610f2590611c74565b60405180910390fd5b8181036000808573ffffffffffffffffffffffffffffffffffffffff1673ffffffffffffffffffffffffffffffffffffffff1681526020019081526020016000208190555081600260008282540392505081905550600073ffffffffffffffffffffffffffffffffffffffff168373ffffffffffffffffffffffffffffffffffffffff167fddf252ad1be2c89b69c2b068fc378daa952ba7f163c4a11628f55a4df523b3ef84604051610fe1919061146e565b60405180910390a3610ff583600084611299565b505050565b600073ffffffffffffffffffffffffffffffffffffffff168273ffffffffffffffffffffffffffffffffffffffff1603611069576040517f08c379a000000000000000000000000000000000000000000000000000000000815260040161106090611ce0565b60405180910390fd5b61107560008383611294565b80600260008282546110879190611666565b92505081905550806000808473ffffffffffffffffffffffffffffffffffffffff1673ffffffffffffffffffffffffffffffffffffffff168152602001908152602001600020600082825401925050819055508173ffffffffffffffffffffffffffffffffffffffff16600073ffffffffffffffffffffffffffffffffffffffff167fddf252ad1be2c89b69c2b068fc378daa952ba7f163c4a11628f55a4df523b3ef83604051611138919061146e565b60405180910390a361114c60008383611299565b5050565b61115861095a565b73ffffffffffffffffffffffffffffffffffffffff166111766106fa565b73ffffffffffffffffffffffffffffffffffffffff16146111cc576040517f08c379a00000000000000000000000000000000000000000000000000000000081526004016111c390611d4c565b60405180910390fd5b565b6000600560009054906101000a900473ffffffffffffffffffffffffffffffffffffffff16905081600560006101000a81548173ffffffffffffffffffffffffffffffffffffffff021916908373ffffffffffffffffffffffffffffffffffffffff1602179055508173ffffffffffffffffffffffffffffffffffffffff168173ffffffffffffffffffffffffffffffffffffffff167f8be0079c531659141344cd1fd0a4f28419497f9722a3daafe3b4186f6b6457e060405160405180910390a35050565b505050565b505050565b600081519050919050565b600082825260208201905092915050565b60005b838110156112d85780820151818401526020810190506112bd565b60008484015250505050565b6000601f19601f8301169050919050565b60006113008261129e565b61130a81856112a9565b935061131a8185602086016112ba565b611323816112e4565b840191505092915050565b6000602082019050818103600083015261134881846112f5565b905092915050565b600080fd5b600073ffffffffffffffffffffffffffffffffffffffff82169050919050565b600061138082611355565b9050919050565b61139081611375565b811461139b57600080fd5b50565b6000813590506113ad81611387565b92915050565b6000819050919050565b6113c6816113b3565b81146113d157600080fd5b50565b6000813590506113e3816113bd565b92915050565b60008060408385031215611400576113ff611350565b5b600061140e8582860161139e565b925050602061141f858286016113d4565b9150509250929050565b60008115159050919050565b61143e81611429565b82525050565b60006020820190506114596000830184611435565b92915050565b611468816113b3565b82525050565b6000602082019050611483600083018461145f565b92915050565b6000806000606084860312156114a2576114a1611350565b5b60006114b08682870161139e565b93505060206114c18682870161139e565b92505060406114d2868287016113d4565b9150509250925092565b600060ff82169050919050565b6114f2816114dc565b82525050565b600060208201905061150d60008301846114e9565b92915050565b60006020828403121561152957611528611350565b5b6000611537848285016113d4565b91505092915050565b60006020828403121561155657611555611350565b5b60006115648482850161139e565b91505092915050565b61157681611375565b82525050565b6000602082019050611591600083018461156d565b92915050565b600080604083850312156115ae576115ad611350565b5b60006115bc8582860161139e565b92505060206115cd8582860161139e565b9150509250929050565b7f4e487b7100000000000000000000000000000000000000000000000000000000600052602260045260246000fd5b6000600282049050600182168061161e57607f821691505b602082108103611631576116306115d7565b5b50919050565b7f4e487b7100000000000000000000000000000000000000000000000000000000600052601160045260246000fd5b6000611671826113b3565b915061167c836113b3565b925082820190508082111561169457611693611637565b5b92915050565b7f56616c7565206973206c657373207468616e20616d6f756e7400000000000000600082015250565b60006116d06019836112a9565b91506116db8261169a565b602082019050919050565b600060208201905081810360008301526116ff816116c3565b9050919050565b7f45524332303a2064656372656173656420616c6c6f77616e63652062656c6f7760008201527f207a65726f000000000000000000000000000000000000000000000000000000602082015250565b60006117626025836112a9565b915061176d82611706565b604082019050919050565b6000602082019050818103600083015261179181611755565b9050919050565b7f4f776e61626c653a206e6577206f776e657220697320746865207a65726f206160008201527f6464726573730000000000000000000000000000000000000000000000000000602082015250565b60006117f46026836112a9565b91506117ff82611798565b604082019050919050565b60006020820190508181036000830152611823816117e7565b9050919050565b7f45524332303a20617070726f76652066726f6d20746865207a65726f2061646460008201527f7265737300000000000000000000000000000000000000000000000000000000602082015250565b60006118866024836112a9565b91506118918261182a565b604082019050919050565b600060208201905081810360008301526118b581611879565b9050919050565b7f45524332303a20617070726f766520746f20746865207a65726f20616464726560008201527f7373000000000000000000000000000000000000000000000000000000000000602082015250565b60006119186022836112a9565b9150611923826118bc565b604082019050919050565b600060208201905081810360008301526119478161190b565b9050919050565b7f45524332303a20696e73756666696369656e7420616c6c6f77616e6365000000600082015250565b6000611984601d836112a9565b915061198f8261194e565b602082019050919050565b600060208201905081810360008301526119b381611977565b9050919050565b7f45524332303a207472616e736665722066726f6d20746865207a65726f20616460008201527f6472657373000000000000000000000000000000000000000000000000000000602082015250565b6000611a166025836112a9565b9150611a21826119ba565b604082019050919050565b60006020820190508181036000830152611a4581611a09565b9050919050565b7f45524332303a207472616e7366657220746f20746865207a65726f206164647260008201527f6573730000000000000000000000000000000000000000000000000000000000602082015250565b6000611aa86023836112a9565b9150611ab382611a4c565b604082019050919050565b60006020820190508181036000830152611ad781611a9b565b9050919050565b7f45524332303a207472616e7366657220616d6f756e742065786365656473206260008201527f616c616e63650000000000000000000000000000000000000000000000000000602082015250565b6000611b3a6026836112a9565b9150611b4582611ade565b604082019050919050565b60006020820190508181036000830152611b6981611b2d565b9050919050565b7f45524332303a206275726e2066726f6d20746865207a65726f2061646472657360008201527f7300000000000000000000000000000000000000000000000000000000000000602082015250565b6000611bcc6021836112a9565b9150611bd782611b70565b604082019050919050565b60006020820190508181036000830152611bfb81611bbf565b9050919050565b7f45524332303a206275726e20616d6f756e7420657863656564732062616c616e60008201527f6365000000000000000000000000000000000000000000000000000000000000602082015250565b6000611c5e6022836112a9565b9150611c6982611c02565b604082019050919050565b60006020820190508181036000830152611c8d81611c51565b9050919050565b7f45524332303a206d696e7420746f20746865207a65726f206164647265737300600082015250565b6000611cca601f836112a9565b9150611cd582611c94565b602082019050919050565b60006020820190508181036000830152611cf981611cbd565b9050919050565b7f4f776e61626c653a2063616c6c6572206973206e6f7420746865206f776e6572600082015250565b6000611d366020836112a9565b9150611d4182611d00565b602082019050919050565b60006020820190508181036000830152611d6581611d29565b905091905056fea2646970667358221220b74c2f6123cc0b4cd73b61deb6e1e50dcbad97bb2b1b8850b41503858d9218d564736f6c63430008110033",
  "immutableReferences": {},
  "source": "// SPDX-License-Identifier: MIT\npragma solidity ^0.8.9;\n\nimport \"@openzeppelin/contracts/token/ERC20/ERC20.sol\";\nimport \"@openzeppelin/contracts/token/ERC20/extensions/ERC20Burnable.sol\";\nimport \"@openzeppelin/contracts/access/Ownable.sol\";\n\ncontract EscrowFundManagementToken is ERC20, ERC20Burnable, Ownable {\n\n    constructor() ERC20(\"EscrowFundManagementToken\", \"EFMT\" ) {}\n\n    function deposit(address to, uint256 amount) public payable{\n        require(msg.value==amount, \"Value is less than amount\");\n        _mint(to, amount);\n    }\n\n    function withdrawal(uint256 amt) public payable {\n        _burn(msg.sender,amt);\n        payable(msg.sender).transfer(amt);\n    }\n\n    function contractBalance()public view returns(uint256){\n        return address(this).balance;\n    }\n\n}\n\ncontract EscrowFundManagement {\n    address public Owner;\n    EscrowFundManagementToken tokenContract;\n    address public tokenContractAddress;\n    mapping(address=>address []) public addressesCollection;\n\n    modifier onlyEFMOwner(){\n        require(msg.sender==Owner, \"This function is only be called by Owner\");\n        _;\n    }\n    constructor(){\n        Owner=msg.sender;\n        tokenContract=new EscrowFundManagementToken();\n        tokenContractAddress=address(tokenContract);\n    }\n\n    function getContracts(address from) public view returns(address [] memory ){\n        return addressesCollection[from];\n    }\n    \n    function OwnerTransfer(address to) onlyEFMOwner external {\n        Owner=to;\n    }\n\n    function generateContract(address payable _buyer, address payable _seller, uint256 _amount) public {\n        escrow ecContract= new escrow(_buyer, _seller, _amount,tokenContractAddress,Owner);\n        addressesCollection[_buyer].push(address(ecContract));\n        addressesCollection[_seller].push(address(ecContract));\n    }\n\n    function contractBalance()public view returns(uint256){\n        return address(this).balance;\n    }\n\n}\n\ncontract escrow {\n    // Declaring the state variables\n    \n    address payable public buyer;\n    address payable public seller;\n    address payable public arbiter;\n    address payable public contractAddress=payable(address(this));\n    EscrowFundManagementToken tokenContract;\n    address public tokenContractAddress;\n    uint256 public contractAmount;\n    // mapping(address => uint) TotalAmount;\n    address public Owner;\n  \n    // Defining a enumerator 'State'\n    enum State{\n         \n        // Following are the data members\n        awate_payment, awate_shipping,awate_delivery, complete, payment_return \n    }\n  \n    // Declaring the object of the enumerator\n    State public state;\n      \n    // Defining function modifier 'instate'\n    modifier instate(State expected_state){\n          \n        require(state == expected_state, \"State is not Matching\");\n        _;\n    }\n  \n   // Defining function modifier 'onlyBuyer'\n    modifier onlyBuyer(){\n        require(msg.sender == buyer, \"Only buyer can call this function\");\n        _;\n    }\n  \n    // Defining function modifier 'onlySeller'\n    modifier onlySeller(){\n        require(msg.sender == seller, \"Only seller can call this function\");\n        _;\n    }\n      \n    // Defining a constructor\n    constructor(address payable _buyer, address payable _seller, uint256 _amount, address _tokenContractAddress, address _owner) {\n\n        arbiter = payable(msg.sender);\n        buyer = _buyer;\n        seller = _seller;\n        contractAmount=_amount;\n        state = State.awate_payment;\n        tokenContractAddress=_tokenContractAddress;\n        tokenContract= EscrowFundManagementToken(_tokenContractAddress);\n        Owner=_owner;\n    }\n      \n    // Defining function to confirm payment\n    function confirm_payment() onlyBuyer instate(State.awate_payment) public {\n      require(tokenContract.balanceOf(address(this))>=contractAmount,\"Pay the payment\");\n        // tokenContract.transfer(address(this),contractAmount);\n        state = State.awate_shipping;\n          \n    }\n\n    function confirm_shipped() onlySeller instate(State.awate_shipping) public {\n      \n        state = State.awate_delivery;\n    }\n      \n    // Defining function to confirm delivery\n    function confirm_Delivery() onlyBuyer instate(State.awate_delivery) public{\n          \n        tokenContract.transfer(seller,contractAmount);\n        state = State.complete;\n    }\n  \n    // Defining function to return payment\n    function ReturnPayment() public{\n        require(msg.sender==Owner || msg.sender==seller,\"This function is only called by Owner or seller\");\n        require(state == State.awate_delivery || state == State.awate_shipping, \"State is not Matching\");\n        tokenContract.transfer(buyer,contractAmount);\n        state = State.payment_return;\n    }\n\n}\n",
  "sourcePath": "/home/sumit/Desktop/escrowmanagementsystent/contracts/contract1.sol",
  "compiler": {
    "name": "solc",
    "version": "0.8.17+commit.8df45f5f.Emscripten.clang"
  },
  "schemaVersion": "3.4.11",
  "updatedAt": "2022-12-26T10:12:47.268Z",
  "devdoc": {
    "kind": "dev",
    "methods": {
      "allowance(address,address)": {
        "details": "See {IERC20-allowance}."
      },
      "approve(address,uint256)": {
        "details": "See {IERC20-approve}. NOTE: If `amount` is the maximum `uint256`, the allowance is not updated on `transferFrom`. This is semantically equivalent to an infinite approval. Requirements: - `spender` cannot be the zero address."
      },
      "balanceOf(address)": {
        "details": "See {IERC20-balanceOf}."
      },
      "burn(uint256)": {
        "details": "Destroys `amount` tokens from the caller. See {ERC20-_burn}."
      },
      "burnFrom(address,uint256)": {
        "details": "Destroys `amount` tokens from `account`, deducting from the caller's allowance. See {ERC20-_burn} and {ERC20-allowance}. Requirements: - the caller must have allowance for ``accounts``'s tokens of at least `amount`."
      },
      "decimals()": {
        "details": "Returns the number of decimals used to get its user representation. For example, if `decimals` equals `2`, a balance of `505` tokens should be displayed to a user as `5.05` (`505 / 10 ** 2`). Tokens usually opt for a value of 18, imitating the relationship between Ether and Wei. This is the value {ERC20} uses, unless this function is overridden; NOTE: This information is only used for _display_ purposes: it in no way affects any of the arithmetic of the contract, including {IERC20-balanceOf} and {IERC20-transfer}."
      },
      "decreaseAllowance(address,uint256)": {
        "details": "Atomically decreases the allowance granted to `spender` by the caller. This is an alternative to {approve} that can be used as a mitigation for problems described in {IERC20-approve}. Emits an {Approval} event indicating the updated allowance. Requirements: - `spender` cannot be the zero address. - `spender` must have allowance for the caller of at least `subtractedValue`."
      },
      "increaseAllowance(address,uint256)": {
        "details": "Atomically increases the allowance granted to `spender` by the caller. This is an alternative to {approve} that can be used as a mitigation for problems described in {IERC20-approve}. Emits an {Approval} event indicating the updated allowance. Requirements: - `spender` cannot be the zero address."
      },
      "name()": {
        "details": "Returns the name of the token."
      },
      "owner()": {
        "details": "Returns the address of the current owner."
      },
      "renounceOwnership()": {
        "details": "Leaves the contract without owner. It will not be possible to call `onlyOwner` functions anymore. Can only be called by the current owner. NOTE: Renouncing ownership will leave the contract without an owner, thereby removing any functionality that is only available to the owner."
      },
      "symbol()": {
        "details": "Returns the symbol of the token, usually a shorter version of the name."
      },
      "totalSupply()": {
        "details": "See {IERC20-totalSupply}."
      },
      "transfer(address,uint256)": {
        "details": "See {IERC20-transfer}. Requirements: - `to` cannot be the zero address. - the caller must have a balance of at least `amount`."
      },
      "transferFrom(address,address,uint256)": {
        "details": "See {IERC20-transferFrom}. Emits an {Approval} event indicating the updated allowance. This is not required by the EIP. See the note at the beginning of {ERC20}. NOTE: Does not update the allowance if the current allowance is the maximum `uint256`. Requirements: - `from` and `to` cannot be the zero address. - `from` must have a balance of at least `amount`. - the caller must have allowance for ``from``'s tokens of at least `amount`."
      },
      "transferOwnership(address)": {
        "details": "Transfers ownership of the contract to a new account (`newOwner`). Can only be called by the current owner."
      }
    },
    "version": 1
  },
  "userdoc": {
    "kind": "user",
    "methods": {},
    "version": 1
  }
}